:100000000C9472000C9493000C9493000C94930045
:100010000C9493000C9493000C9493000C94930014
:100020000C9493000C9493000C9493000C94930004
:100030000C9493000C943F010C9454010C940F0108
:100040000C9493000C9493000C9493000C949300E4
:100050000C9493000C94B5000C94C5000C9495007E
:100060000C9493000C9493000C9493000C949300C4
:100070000C9493000C9493000C9493000C949300B4
:100080000C9493000C9493000C9493000C949300A4
:100090000C9493000C9493000C9493000C94930094
:1000A0000C9493000C9493000C9493000C94930084
:1000B0000C9493000C9493000C9493000C94930074
:1000C0000C9493000C9493000C9493000C94930064
:1000D0000C9493000C9493000C9493000C94930054
:1000E0000C94930011241FBECFEFD1E2DEBFCDBF31
:1000F00000E00CBF12E0A0E0B2E0EEEAF5E000E0C4
:100100000BBF02C007900D92A230B107D9F712E0E1
:10011000A2E0B2E001C01D92A630B107E1F70E9453
:1001200060020C94D5020C9400001F920F920FB63F
:100130000F9211248F9387B5882331F488B58823D3
:1001400019F4A5982F980BC087B5882319F02F981C
:10015000A59A05C088B5882311F0A5982F9A8F918C
:100160000F900FBE0F901F9018951F920F920FB611
:100170000F9211248F9387B58F3F09F0A5988F9127
:100180000F900FBE0F901F9018951F920F920FB6F1
:100190000F9211248F9388B58F3F09F02F988F917C
:1001A0000F900FBE0F901F9018959D9A279AA598B3
:1001B0002F9814BC83E085BD17BC18BC87E08093E2
:1001C0006E0078940895982F8C59893C38F5292F22
:1001D000332727FD309597FD11C018BC8FEF90E0B5
:1001E000AC01249FC001259F900D349F900D1124D8
:1001F00064E670E00E94AE0267BD089517BC8FEF01
:1002000090E0AC01249FC001259F900D349F900D7C
:1002100011246CE97FEF0E94AE0268BD08951F9221
:100220000F920FB60F9211248F938091B300882301
:1002300059F48091B400882339F4809102018F7BB6
:10024000809302012C9815C08091B300882339F067
:100250002C98809102018064809302010AC08091F1
:10026000B400882331F0809102018F7B80930201DA
:100270002C9A8F910F900FBE0F901F9018951F9280
:100280000F920FB60F9211248F938091B3008F3F7E
:1002900029F0809102018F7B809302018F910F9052
:1002A0000FBE0F901F9018951F920F920FB60F92CE
:1002B00011248F938091B4008F3F09F02C988F9177
:1002C0000F900FBE0F901F9018950E9A249AE2E09F
:1002D000F1E080818F7B80832C981092B00083E0C6
:1002E0008093B1001092B3001092B40087E0809325
:1002F000700078940895982F8C59893C58F5292FCF
:10030000332727FD309597FD13C01092B4008FEF6F
:1003100090E0AC01249FC001259F900D349F900D6B
:10032000112464E670E00E94AE026093B300089569
:100330001092B3008FEF90E0AC01249FC001259F85
:10034000900D349F900D11246CE97FEF0E94AE0256
:100350006093B40008953D98219839982398EAE075
:10036000F1E080818F7D80830895999880988298AC
:1003700008950E980A98089508959C01069B02C05E
:1003800020E030E0C90108958091090196B185FF10
:1003900002C091FD23C080E00E94E30080E00E9443
:1003A0007B0180E090E020E23EE4F9013197F1F733
:1003B000019684369105C9F784E60E94E30084E63D
:1003C0000E947B0180E090E020E23EE4F901319759
:1003D000F1F7019641E08C329407C1F708950F932D
:1003E0001F93CF93DF93C0E0D0E000EA1FE08EE1DF
:1003F0000E94E30084E60E947B01C8010197F1F7A7
:10040000219685E0CC3DD80791F7DF91CF911F91E0
:100410000F9108950F931F93CF93DF93C0E0D0E027
:1004200000EA1FE084E60E94E3008EE10E947B0167
:10043000C8010197F1F7219685E0CC3DD80791F7E7
:10044000DF91CF911F910F910895359927C0809129
:1004500000029091010262E070E00E94AE020097FB
:1004600019F0019731F403C00E94EF0102C00E940D
:100470000A028091040290910502892B79F481E0AF
:1004800090E0909305028093040280910002909185
:10049000010201969093010280930002359B04C0F3
:1004A000109205021092040208950E94AB010E946E
:1004B000B5010E980A980E94D5000E946501089522
:1004C0000F931F93CF93DF930E945502C1E0D0E0BA
:1004D00001E010E081B11092030210920202C130DB
:1004E000D10551F0C130D10530F1C330D10519F13A
:1004F000C430D10579F726C08091090185FF0AC073
:10050000319B08C0359B06C084E60E94E30084E668
:100510000E947B0180B1C82FD0E086E0D695C795B8
:100520008A95E1F7C027D127C170D0700E94C4011D
:100530000E942502CFCF80E00E94E30080E00E946D
:100540007B01C8CFC0E2DEE484E60E94E30089E1DB
:100550000E947B01CE010197F1F7F6CF97FB092EA0
:1005600007260AD077FD04D00CD006D000201AF45C
:10057000709561957F4F0895F6F7909581959F4FFF
:100580000895AA1BBB1B51E107C0AA1FBB1FA617DA
:10059000B70710F0A61BB70B881F991F5A95A9F72C
:0E05A00080959095BC01CD010895F894FFCF91
:0205AE00020049
:00000001FF
