:100000000C9472000C948B000C948B000C948B005D
:100010000C948B000C948B000C948B000C948B0034
:100020000C948B000C948B000C948B000C948B0024
:100030000C948B000C9437010C944C010C94070128
:100040000C948B000C948B000C948B000C948B0004
:100050000C948B000C94AD000C94BD000C948D009E
:100060000C948B000C948B000C948B000C948B00E4
:100070000C948B000C948B000C948B000C948B00D4
:100080000C948B000C948B000C948B000C948B00C4
:100090000C948B000C948B000C948B000C948B00B4
:1000A0000C948B000C948B000C948B000C948B00A4
:1000B0000C948B000C948B000C948B000C948B0094
:1000C0000C948B000C948B000C948B000C948B0084
:1000D0000C948B000C948B000C948B000C948B0074
:1000E0000C948B0011241FBECFEFD1E2DEBFCDBF39
:1000F00000E00CBF12E0A0E0B2E0E2E4F4E000E0D7
:100100000BBF02C007900D92A030B107D9F70E9433
:10011000C0010C941F020C9400001F920F920FB6A6
:100120000F9211248F9387B5882331F488B58823E3
:1001300019F4A5982F980BC087B5882319F02F982C
:10014000A59A05C088B5882311F0A5982F9A8F919C
:100150000F900FBE0F901F9018951F920F920FB621
:100160000F9211248F9387B58F3F09F0A5988F9137
:100170000F900FBE0F901F9018951F920F920FB601
:100180000F9211248F9388B58F3F09F02F988F918C
:100190000F900FBE0F901F9018959D9A279AA598C3
:1001A0002F9814BC83E085BD17BC18BC87E08093F2
:1001B0006E0078940895982F8C59893C38F5292F32
:1001C000332727FD309597FD11C018BC8FEF90E0C5
:1001D000AC01249FC001259F900D349F900D1124E8
:1001E00064E670E00E94F80167BD089517BC8FEFC8
:1001F00090E0AC01249FC001259F900D349F900D8D
:1002000011246CE97FEF0E94F80168BD08951F92E8
:100210000F920FB60F9211248F938091B300882311
:1002200059F48091B400882339F4809102018F7BC6
:10023000809302012C9815C08091B300882339F077
:100240002C98809102018064809302010AC0809101
:10025000B400882331F0809102018F7B80930201EA
:100260002C9A8F910F900FBE0F901F9018951F9290
:100270000F920FB60F9211248F938091B3008F3F8E
:1002800029F0809102018F7B809302018F910F9062
:100290000FBE0F901F9018951F920F920FB60F92DE
:1002A00011248F938091B4008F3F09F02C988F9187
:1002B0000F900FBE0F901F9018950E9A249AE2E0AF
:1002C000F1E080818F7B80832C981092B00083E0D6
:1002D0008093B1001092B3001092B40087E0809335
:1002E000700078940895982F8C59893C58F5292FDF
:1002F000332727FD309597FD13C01092B4008FEF80
:1003000090E0AC01249FC001259F900D349F900D7B
:10031000112464E670E00E94F8016093B300089530
:100320001092B3008FEF90E0AC01249FC001259F95
:10033000900D349F900D11246CE97FEF0E94F8011D
:100340006093B40008953D98219839982398EAE085
:10035000F1E080818F7D80830895999880988298BC
:1003600008950E980A98089508950E94A3010E9486
:10037000AD010E980A980E94CD000E945D0108957B
:10038000CF93DF930E94B501C0E2DEE480910901C2
:1003900085FF08C0319B06C084E60E94DB0084E62E
:1003A0000E9473018091090196B185FF02C091FD01
:1003B000EDCF80E00E94DB0080E00E94730180E0CE
:1003C00090E0FE013197F1F7019684369105C9F767
:1003D00084E60E94DB0084E60E94730180E090E0E6
:1003E000FE013197F1F70196883C9105C9F7CECF10
:1003F00097FB092E07260AD077FD04D00CD006D033
:1004000000201AF4709561957F4F0895F6F7909546
:1004100081959F4F0895AA1BBB1B51E107C0AA1FDE
:10042000BB1FA617B70710F0A61BB70B881F991F95
:100430005A95A9F780959095BC01CD010895F8943F
:02044000FFCFEC
:00000001FF
