:100000000C9472000C9493000C9493000C94930045
:100010000C9493000C9493000C9493000C94930014
:100020000C9493000C9493000C9493000C94930004
:100030000C9493000C943F010C9454010C940F0108
:100040000C9493000C9493000C9493000C949300E4
:100050000C9493000C94B5000C94C5000C9495007E
:100060000C9493000C9493000C9493000C949300C4
:100070000C9493000C9493000C9493000C949300B4
:100080000C9493000C9493000C9493000C949300A4
:100090000C9493000C9493000C9493000C94930094
:1000A0000C9493000C9493000C9493000C94930084
:1000B0000C9493000C9493000C9493000C94930074
:1000C0000C9493000C9493000C9493000C94930064
:1000D0000C9493000C9493000C9493000C94930054
:1000E0000C94930011241FBECFEFD1E2DEBFCDBF31
:1000F00000E00CBF12E0A0E0B2E0EEE6F6E000E0C7
:100100000BBF02C007900D92A230B107D9F712E0E1
:10011000A2E0B2E001C01D92A830B107E1F70E9451
:10012000B4020C9435030C9400001F920F920FB68A
:100130000F9211248F9387B5882331F488B58823D3
:1001400019F4A5982F980BC087B5882319F02F981C
:10015000A59A05C088B5882311F0A5982F9A8F918C
:100160000F900FBE0F901F9018951F920F920FB611
:100170000F9211248F9387B58F3F09F0A5988F9127
:100180000F900FBE0F901F9018951F920F920FB6F1
:100190000F9211248F9388B58F3F09F02F988F917C
:1001A0000F900FBE0F901F9018959D9A279AA598B3
:1001B0002F9814BC83E085BD17BC18BC87E08093E2
:1001C0006E0078940895982F8C59893C38F5292F22
:1001D000332727FD309597FD11C018BC8FEF90E0B5
:1001E000AC01249FC001259F900D349F900D1124D8
:1001F00064E670E00E940E0367BD089517BC8FEFA0
:1002000090E0AC01249FC001259F900D349F900D7C
:1002100011246CE97FEF0E940E0368BD08951F92C0
:100220000F920FB60F9211248F938091B300882301
:1002300059F48091B400882339F4809102018F7BB6
:10024000809302012C9815C08091B300882339F067
:100250002C98809102018064809302010AC08091F1
:10026000B400882331F0809102018F7B80930201DA
:100270002C9A8F910F900FBE0F901F9018951F9280
:100280000F920FB60F9211248F938091B3008F3F7E
:1002900029F0809102018F7B809302018F910F9052
:1002A0000FBE0F901F9018951F920F920FB60F92CE
:1002B00011248F938091B4008F3F09F02C988F9177
:1002C0000F900FBE0F901F9018950E9A249AE2E09F
:1002D000F1E080818F7B80832C981092B00083E0C6
:1002E0008093B1001092B3001092B40087E0809325
:1002F000700078940895982F8C59893C58F5292FCF
:10030000332727FD309597FD13C01092B4008FEF6F
:1003100090E0AC01249FC001259F900D349F900D6B
:10032000112464E670E00E940E036093B300089508
:100330001092B3008FEF90E0AC01249FC001259F85
:10034000900D349F900D11246CE97FEF0E940E03F5
:100350006093B40008953D98219839982398EAE075
:10036000F1E080818F7D80830895999880988298AC
:10037000089508980A98089508950F931F93CF93AE
:10038000DF9301E010E0C2E0D0E018C019990AC084
:1003900084E10E94E30082E30E947B011093050246
:1003A000009304021B990AC082E30E94E30084E1E7
:1003B0000E947B01D0930502C0930402199BE6CFF3
:1003C0001B9BE4CF8091040290910502813091053E
:1003D00019F0029741F512C0C0E0D0E000E21EE43F
:1003E00082E30E94E30084E10E947B01C80101973F
:1003F000F1F72196C832D10599F711C0C0E0D0E0DD
:1004000000E21EE484E10E94E30082E30E947B019B
:10041000C8010197F1F72196C832D10599F71092DA
:10042000050210920402DF91CF911F910F91089560
:100430008091090196B185FF02C091FD23C080E043
:100440000E94E30080E00E947B0180E090E020E2D7
:100450003EE4F9013197F1F7019684369105C9F729
:1004600084E60E94E30084E60E947B0180E090E045
:1004700020E23EE4F9013197F1F7019641E08C3238
:100480009407C1F708950F931F93CF93DF93C0E0B4
:10049000D0E000EA1FE08EE10E94E30084E60E94C3
:1004A0007B01C8010197F1F7219685E0CC3DD80783
:1004B00091F7DF91CF911F910F9108950F931F93A3
:1004C000CF93DF93C0E0D0E000EA1FE084E60E9413
:1004D000E3008EE10E947B01C8010197F1F72196AC
:1004E00085E0CC3DD80791F7DF91CF911F910F9117
:1004F0000895359927C0809100029091010262E031
:1005000070E00E940E03009719F0019731F403C0C8
:100510000E94430202C00E945E02809106029091F6
:100520000702892B79F481E090E090930702809391
:1005300006028091000290910102019690930102BF
:1005400080930002359B04C01092070210920602AD
:1005500008950E94AB010E94B50108980A980E9474
:10056000D5000E94650108950F931F93CF93DF93E9
:100570000E94A902C1E0D0E001E010E00A9B0FC098
:100580008091020290910302892B49F41093030297
:1005900000930202C430D10599F0219604C0109254
:1005A000030210920202C130D10551F0C130D105D1
:1005B00010F1C330D105F9F0C430D105F9F622C0ED
:1005C0008091090185FF0EC0319B0CC0359B0AC08C
:1005D000199908C01B9906C084E60E94E30084E6CE
:1005E0000E947B010E9418020E9479020E94BD01B4
:1005F000C1E0D0E0C3CF80E00E94E30080E00E9431
:100600007B01BCCFC0E2DEE484E60E94E30089E126
:100610000E947B01CE010197F1F7F6CF97FB092EDF
:1006200007260AD077FD04D00CD006D000201AF49B
:10063000709561957F4F0895F6F7909581959F4F3E
:100640000895AA1BBB1B51E107C0AA1FBB1FA61719
:10065000B70710F0A61BB70B881F991F5A95A9F76B
:0E06600080959095BC01CD010895F894FFCFD0
:02066E00020088
:00000001FF
