:100000000C9472000C9493000C9493000C94930045
:100010000C9493000C9493000C9493000C94930014
:100020000C9493000C9493000C9493000C94930004
:100030000C9493000C943F010C9454010C940F0108
:100040000C9493000C9493000C9493000C949300E4
:100050000C9493000C94B5000C94C5000C9495007E
:100060000C9493000C9493000C9493000C949300C4
:100070000C9493000C9493000C9493000C949300B4
:100080000C9493000C9493000C9493000C949300A4
:100090000C9493000C9493000C9493000C94930094
:1000A0000C9493000C9493000C9493000C94930084
:1000B0000C9493000C9493000C9493000C94930074
:1000C0000C9493000C9493000C9493000C94930064
:1000D0000C9493000C9493000C9493000C94930054
:1000E0000C94930011241FBECFEFD1E2DEBFCDBF31
:1000F00000E00CBF12E0A0E0B2E0EAEFF4E000E0C4
:100100000BBF02C007900D92A230B107D9F712E0E1
:10011000A2E0B2E001C01D92A430B107E1F70E9455
:100120003F020C947B020C9400001F920F920FB6BA
:100130000F9211248F9387B5882331F488B58823D3
:1001400019F4A5982F980BC087B5882319F02F981C
:10015000A59A05C088B5882311F0A5982F9A8F918C
:100160000F900FBE0F901F9018951F920F920FB611
:100170000F9211248F9387B58F3F09F0A5988F9127
:100180000F900FBE0F901F9018951F920F920FB6F1
:100190000F9211248F9388B58F3F09F02F988F917C
:1001A0000F900FBE0F901F9018959D9A279AA598B3
:1001B0002F9814BC83E085BD17BC18BC87E08093E2
:1001C0006E0078940895982F8C59893C38F5292F22
:1001D000332727FD309597FD11C018BC8FEF90E0B5
:1001E000AC01249FC001259F900D349F900D1124D8
:1001F00064E670E00E94540267BD089517BC8FEF5B
:1002000090E0AC01249FC001259F900D349F900D7C
:1002100011246CE97FEF0E94540268BD08951F927B
:100220000F920FB60F9211248F938091B300882301
:1002300059F48091B400882339F4809102018F7BB6
:10024000809302012C9815C08091B300882339F067
:100250002C98809102018064809302010AC08091F1
:10026000B400882331F0809102018F7B80930201DA
:100270002C9A8F910F900FBE0F901F9018951F9280
:100280000F920FB60F9211248F938091B3008F3F7E
:1002900029F0809102018F7B809302018F910F9052
:1002A0000FBE0F901F9018951F920F920FB60F92CE
:1002B00011248F938091B4008F3F09F02C988F9177
:1002C0000F900FBE0F901F9018950E9A249AE2E09F
:1002D000F1E080818F7B80832C981092B00083E0C6
:1002E0008093B1001092B3001092B40087E0809325
:1002F000700078940895982F8C59893C58F5292FCF
:10030000332727FD309597FD13C01092B4008FEF6F
:1003100090E0AC01249FC001259F900D349F900D6B
:10032000112464E670E00E9454026093B3000895C3
:100330001092B3008FEF90E0AC01249FC001259F85
:10034000900D349F900D11246CE97FEF0E945402B0
:100350006093B40008953D98219839982398EAE075
:10036000F1E080818F7D80830895999880988298AC
:1003700008950E980A98089508958091090196B1FC
:1003800085FF02C091FD23C080E00E94E30080E071
:100390000E947B0180E090E020E23EE4F901319789
:1003A000F1F7019684369105C9F784E60E94E300CF
:1003B00084E60E947B0180E090E020E23EE4F901C7
:1003C0003197F1F7019641E08C329407C1F7089517
:1003D000CF93DF93C0EADFE08EE10E94E30084E682
:1003E0000E947B01CE010197F1F7F6CFCF93DF9307
:1003F000C0EADFE084E60E94E3008EE10E947B0118
:10040000CE010197F1F7F6CF359927C08091000210
:100410009091010262E070E00E945402009719F08E
:10042000019731F403C00E94F60102C00E94E80166
:100430008091020290910302892B79F481E090E08F
:100440009093030280930202809100029091010236
:1004500001969093010280930002359B04C0109294
:1004600003021092020208950E94AB010E94B5019E
:100470000E980A980E94D5000E94650108950E9476
:1004800034028091090185FF0AC0319B08C0359B69
:1004900006C084E60E94E30084E60E947B010E947D
:1004A000BD010E940402EDCF97FB092E07260AD05A
:1004B00077FD04D00CD006D000201AF47095619519
:1004C0007F4F0895F6F7909581959F4F0895AA1B49
:1004D000BB1B51E107C0AA1FBB1FA617B70710F02F
:1004E000A61BB70B881F991F5A95A9F78095909561
:0A04F000BC01CD010895F894FFCF80
:0204FA000200FE
:00000001FF
