:100000000C9472000C94AB010C9493000C9493002C
:100010000C9493000C9493000C9493000C94930014
:100020000C9493000C9493000C9493000C94930004
:100030000C9493000C943F010C9454010C940F0108
:100040000C9493000C9493000C9493000C949300E4
:100050000C9493000C94B5000C94C5000C9495007E
:100060000C9493000C9493000C9493000C949300C4
:100070000C9493000C9493000C9493000C949300B4
:100080000C9493000C9493000C9493000C949300A4
:100090000C9493000C9493000C9493000C94930094
:1000A0000C9493000C9493000C9493000C94930084
:1000B0000C9493000C9493000C9493000C94930074
:1000C0000C9493000C9493000C9493000C94930064
:1000D0000C9493000C9493000C9493000C94930054
:1000E0000C94930011241FBECFEFD1E2DEBFCDBF31
:1000F00000E00CBF12E0A0E0B2E0E8E9F5E000E0CB
:100100000BBF02C007900D92A630B107D9F712E0DD
:10011000A6E0B2E001C01D92A830B107E1F70E944D
:10012000F9010C94CA020C9400001F920F920FB6B2
:100130000F9211248F9387B5882331F488B58823D3
:1001400019F4A5982F980BC087B5882319F02F981C
:10015000A59A05C088B5882311F0A5982F9A8F918C
:100160000F900FBE0F901F9018951F920F920FB611
:100170000F9211248F9387B58F3F09F0A5988F9127
:100180000F900FBE0F901F9018951F920F920FB6F1
:100190000F9211248F9388B58F3F09F02F988F917C
:1001A0000F900FBE0F901F9018959D9A279AA598B3
:1001B0002F9814BC83E085BD17BC18BC87E08093E2
:1001C0006E0078940895982F8C59893C38F5292F22
:1001D000332727FD309597FD11C018BC8FEF90E0B5
:1001E000AC01249FC001259F900D349F900D1124D8
:1001F00064E670E00E94A30267BD089517BC8FEF0C
:1002000090E0AC01249FC001259F900D349F900D7C
:1002100011246CE97FEF0E94A30268BD08951F922C
:100220000F920FB60F9211248F938091B300882301
:1002300059F48091B400882339F4809102018F7BB6
:10024000809302012C9815C08091B300882339F067
:100250002C98809102018064809302010AC08091F1
:10026000B400882331F0809102018F7B80930201DA
:100270002C9A8F910F900FBE0F901F9018951F9280
:100280000F920FB60F9211248F938091B3008F3F7E
:1002900029F0809102018F7B809302018F910F9052
:1002A0000FBE0F901F9018951F920F920FB60F92CE
:1002B00011248F938091B4008F3F09F02C988F9177
:1002C0000F900FBE0F901F9018950E9A249AE2E09F
:1002D000F1E080818F7B80832C981092B00083E0C6
:1002E0008093B1001092B3001092B40087E0809325
:1002F000700078940895982F8C59893C58F5292FCF
:10030000332727FD309597FD13C01092B4008FEF6F
:1003100090E0AC01249FC001259F900D349F900D6B
:10032000112464E670E00E94A3026093B300089574
:100330001092B3008FEF90E0AC01249FC001259F85
:10034000900D349F900D11246CE97FEF0E94A30261
:100350006093B40008951F920F920FB60F9211246C
:100360005F936F937F938F939F93AF93BF9380918E
:100370000402909105020196909305028093040275
:1003800062E070E00E94A302009719F0019761F407
:1003900007C081E090E0909301028093000204C0C6
:1003A0001092010210920002BF91AF919F918F9124
:1003B0007F916F915F910F900FBE0F901F901895D6
:1003C0003D9821983998EAE0F1E08081877F808329
:1003D00080818F7D80830895999880988298089570
:1003E00008980A980895789481E0809369000895A8
:1003F00008956B986C9AE2E0F1E080818F7E8083B3
:1004000080E090E008958091090196B185FF02C0D7
:1004100091FD23C080E00E94E30080E00E947B0108
:1004200080E090E020E23EE4F9013197F1F7019697
:1004300084369105C9F784E60E94E30084E60E94B1
:100440007B0180E090E020E23EE4F9013197F1F792
:10045000019641E08C329407C1F708950F931F93E2
:10046000CF93DF93C0E0D0E000EA1FE08EE10E946E
:10047000E30084E60E947B01C8010197F1F7219611
:1004800085E0CC3DD80791F7DF91CF911F910F9177
:1004900008950F931F93CF93DF93C0E0D0E000EA5D
:1004A0001FE084E60E94E3008EE10E947B01C80108
:1004B0000197F1F7219685E0CC3DD80791F7DF91C0
:1004C000CF911F910F910895359927C08091020215
:1004D0009091030262E070E00E94A302009719F07D
:1004E000019731F403C00E942E0202C00E9449020B
:1004F0008091060290910702892B79F481E090E0C7
:100500009093070280930602809102029091030269
:1005100001969093030280930202359B04C01092CF
:1005200007021092060208950E94E0010E94EC0169
:1005300008980A980E94D5000E946501789481E08D
:1005400080936900089597FB092E07260AD077FD4E
:1005500004D00CD006D000201AF4709561957F4F1E
:100560000895F6F7909581959F4F0895AA1BBB1BA0
:1005700051E107C0AA1FBB1FA617B70710F0A61BA3
:10058000B70B881F991F5A95A9F780959095BC01C4
:08059000CD010895F894FFCF9E
:0605980001000200020058
:00000001FF
