:100000000C9472000C94AB010C9493000C9493002C
:100010000C9493000C9493000C9493000C94930014
:100020000C9493000C9493000C9493000C94930004
:100030000C9493000C943F010C9454010C940F0108
:100040000C9493000C9493000C9493000C949300E4
:100050000C9493000C94B5000C94C5000C9495007E
:100060000C9493000C9493000C9493000C949300C4
:100070000C9493000C9493000C9493000C949300B4
:100080000C9493000C9493000C9493000C949300A4
:100090000C9493000C9493000C9493000C94930094
:1000A0000C9493000C9493000C9493000C94930084
:1000B0000C9493000C9493000C9493000C94930074
:1000C0000C9493000C9493000C9493000C94930064
:1000D0000C9493000C9493000C9493000C94930054
:1000E0000C94930011241FBECFEFD1E2DEBFCDBF31
:1000F00000E00CBF12E0A0E0B2E0ECE4F7E000E0CA
:100100000BBF02C007900D92A430B107D9F712E0DF
:10011000A4E0B2E001C01D92AA30B107E1F70E944D
:1001200024030C94A4030C9400001F920F920FB6AA
:100130000F9211248F9387B5882331F488B58823D3
:1001400019F4A5982F980BC087B5882319F02F981C
:10015000A59A05C088B5882311F0A5982F9A8F918C
:100160000F900FBE0F901F9018951F920F920FB611
:100170000F9211248F9387B58F3F09F0A5988F9127
:100180000F900FBE0F901F9018951F920F920FB6F1
:100190000F9211248F9388B58F3F09F02F988F917C
:1001A0000F900FBE0F901F9018959D9A279AA598B3
:1001B0002F9814BC83E085BD17BC18BC87E08093E2
:1001C0006E0078940895982F8C59893C38F5292F22
:1001D000332727FD309597FD11C018BC8FEF90E0B5
:1001E000AC01249FC001259F900D349F900D1124D8
:1001F00064E670E00E947D0367BD089517BC8FEF31
:1002000090E0AC01249FC001259F900D349F900D7C
:1002100011246CE97FEF0E947D0368BD08951F9251
:100220000F920FB60F9211248F938091B300882301
:1002300059F48091B400882339F4809102018F7BB6
:10024000809302012C9815C08091B300882339F067
:100250002C98809102018064809302010AC08091F1
:10026000B400882331F0809102018F7B80930201DA
:100270002C9A8F910F900FBE0F901F9018951F9280
:100280000F920FB60F9211248F938091B3008F3F7E
:1002900029F0809102018F7B809302018F910F9052
:1002A0000FBE0F901F9018951F920F920FB60F92CE
:1002B00011248F938091B4008F3F09F02C988F9177
:1002C0000F900FBE0F901F9018950E9A249AE2E09F
:1002D000F1E080818F7B80832C981092B00083E0C6
:1002E0008093B1001092B3001092B40087E0809325
:1002F000700078940895982F8C59893C58F5292FCF
:10030000332727FD309597FD13C01092B4008FEF6F
:1003100090E0AC01249FC001259F900D349F900D6B
:10032000112464E670E00E947D036093B300089599
:100330001092B3008FEF90E0AC01249FC001259F85
:10034000900D349F900D11246CE97FEF0E947D0386
:100350006093B40008951F920F920FB60F9211246C
:100360005F936F937F938F939F93AF93BF9380918E
:10037000020290910302019690930302809302027D
:1003800062E070E00E947D03009719F0019761F42C
:1003900007C081E090E0909301028093000204C0C6
:1003A0001092010210920002BF91AF919F918F9124
:1003B0007F916F915F910F900FBE0F901F901895D6
:1003C0003D9823983998EAE0F1E08081877F808327
:1003D00080818F7D80830895999880988298089570
:1003E00008980A98EAE0F1E08081826080830895AD
:1003F000789481E08DBB80936900089580910B0112
:10040000826080930B0180E090E020E23EE4F901FD
:100410003197F1F7019684319105C9F780910B016D
:100420008D7F80930B0180E090E020E23EE4F901B3
:100430003197F1F7019684319105C9F780910B014D
:10044000826080930B0180E090E020E23EE4F901BD
:100450003197F1F7019684319105C9F780910B012D
:100460008D7F80930B01089506C080E00E94E30019
:1004700080E00E947B01919BF8CF08958091090153
:1004800096B185FF02C091FD24C080E00E94E30088
:1004900080E00E947B010E94FE0180E090E020E26B
:1004A0003EE4F9013197F1F701968A3F9105C9F7CA
:1004B00082E30E94E30082E30E947B0180E090E0FF
:1004C00020E23EE4F9013197F1F701968436910577
:1004D000C9F708951B9917C08091060290910702F1
:1004E0008C5594448CF583E20E94E30082E30E94E1
:1004F0007B0180910602909107020196909307027A
:100500008093060227C08091090183FD17C0809166
:100510000402909105028C559444B4F482E30E9445
:10052000E30083E20E947B01809104029091050226
:10053000019690930502809304020CC080910901FA
:1005400083FF08C01B9B06C082E30E94E30082E396
:100550000E947B018091090183FF04C01092050273
:10056000109204021B9B04C0109207021092060214
:100570000E943E0208950F931F93CF93DF93C0E034
:10058000D0E000EA1FE084E10E94E30082E30E94E1
:100590007B01C8010197F1F721968BE0C435D8079C
:1005A00091F782E30E94E30082E30E947B01DF91E6
:1005B000CF911F910F9108950F931F93CF93DF93C6
:1005C000C0E0D0E000EA1FE082E30E94E30084E1A3
:1005D0000E947B01C8010197F1F721968BE0C43599
:1005E000D80791F782E30E94E30082E30E947B0137
:1005F000DF91CF911F910F91089535990EC00E9400
:10060000BB028091080290910902892B31F481E0AC
:1006100090E09093090280930802359B04C01092E9
:1006200009021092080208950E94E0010E94EC0164
:100630000E94F0010E94D5000E946501789481E03B
:100640008DBB809369000895CF93DF930E941403BC
:10065000C0E9D1E0809100029091010281309105C2
:10066000D1F08130910538F08330910599F18430D3
:100670009105A1F736C080E00E94E30080E00E946F
:100680007B0180E197E2FE013197F1F70197D9F7FD
:100690000E94FE01DFCF8091090185FF10C0319BD0
:1006A0000EC0359B0CC01B990AC08091090183FDC7
:1006B00006C082E30E94E30082E30E947B010E9465
:1006C0006A020E943E020E946A020E94FD020E948B
:1006D0006A02C0CF80E00E94E30080E00E947B01BC
:1006E000B9CFC0E2DEE482E30E94E30089E10E9428
:1006F0007B01CE010197F1F7F6CF97FB092E072674
:100700000AD077FD04D00CD006D000201AF47095E2
:1007100061957F4F0895F6F7909581959F4F0895C5
:10072000AA1BBB1B51E107C0AA1FBB1FA617B70717
:1007300010F0A61BB70B881F991F5A95A9F7809533
:0C0740009095BC01CD010895F894FFCF06
:04074C0001000200A6
:00000001FF
