:100000000C9472000C9493000C9493000C94930045
:100010000C9493000C9493000C9493000C94930014
:100020000C9493000C9493000C9493000C94930004
:100030000C9493000C943F010C9454010C940F0108
:100040000C9493000C9493000C9493000C949300E4
:100050000C9493000C94B5000C94C5000C9495007E
:100060000C9493000C9493000C9493000C949300C4
:100070000C9493000C9493000C9493000C949300B4
:100080000C9493000C9493000C9493000C949300A4
:100090000C9493000C9493000C9493000C94930094
:1000A0000C9493000C9493000C9493000C94930084
:1000B0000C9493000C9493000C9493000C94930074
:1000C0000C9493000C9493000C9493000C94930064
:1000D0000C9493000C9493000C9493000C94930054
:1000E0000C94930011241FBECFEFD1E2DEBFCDBF31
:1000F00000E00CBF12E0A0E0B2E0EAEBF6E000E0C6
:100100000BBF02C007900D92A230B107D9F712E0E1
:10011000A2E0B2E001C01D92A830B107E1F70E9451
:10012000E0020C945B030C9400001F920F920FB638
:100130000F9211248F9387B5882331F488B58823D3
:1001400019F4A5982F980BC087B5882319F02F981C
:10015000A59A05C088B5882311F0A5982F9A8F918C
:100160000F900FBE0F901F9018951F920F920FB611
:100170000F9211248F9387B58F3F09F0A5988F9127
:100180000F900FBE0F901F9018951F920F920FB6F1
:100190000F9211248F9388B58F3F09F02F988F917C
:1001A0000F900FBE0F901F9018959D9A279AA598B3
:1001B0002F9814BC83E085BD17BC18BC87E08093E2
:1001C0006E0078940895982F8C59893C38F5292F22
:1001D000332727FD309597FD11C018BC8FEF90E0B5
:1001E000AC01249FC001259F900D349F900D1124D8
:1001F00064E670E00E94340367BD089517BC8FEF7A
:1002000090E0AC01249FC001259F900D349F900D7C
:1002100011246CE97FEF0E94340368BD08951F929A
:100220000F920FB60F9211248F938091B300882301
:1002300059F48091B400882339F4809102018F7BB6
:10024000809302012C9815C08091B300882339F067
:100250002C98809102018064809302010AC08091F1
:10026000B400882331F0809102018F7B80930201DA
:100270002C9A8F910F900FBE0F901F9018951F9280
:100280000F920FB60F9211248F938091B3008F3F7E
:1002900029F0809102018F7B809302018F910F9052
:1002A0000FBE0F901F9018951F920F920FB60F92CE
:1002B00011248F938091B4008F3F09F02C988F9177
:1002C0000F900FBE0F901F9018950E9A249AE2E09F
:1002D000F1E080818F7B80832C981092B00083E0C6
:1002E0008093B1001092B3001092B40087E0809325
:1002F000700078940895982F8C59893C58F5292FCF
:10030000332727FD309597FD13C01092B4008FEF6F
:1003100090E0AC01249FC001259F900D349F900D6B
:10032000112464E670E00E9434036093B3000895E2
:100330001092B3008FEF90E0AC01249FC001259F85
:10034000900D349F900D11246CE97FEF0E943403CF
:100350006093B40008953D98239839982198EAE075
:10036000F1E080818F7D80830895999880988298AC
:10037000089508980A980895089506C080E00E949C
:10038000E30080E00E947B01919BF8CF089580916B
:10039000090196B185FF02C091FD23C080E00E9453
:1003A000E30080E00E947B0180E090E020E23EE4F8
:1003B000F9013197F1F7019641E0843F9407C1F7C5
:1003C00086E40E94E30086E40E947B0180E090E0E6
:1003D00020E23EE4F9013197F1F701968634910568
:1003E000C9F708950F931F93CF93DF931B990DC007
:1003F00084E10E94E30082E30E947B0181E090E0BF
:10040000909305028093040224C01B9B22C080911C
:100410000402909105020197E1F4C0E0D0E000EA07
:100420001FE082E30E94E30084E10E947B01C80197
:100430000197F1F7219681E0C43FD80791F786E450
:100440000E94E30086E40E947B0110920502109254
:10045000040219990DC084E10E94E30082E30E9426
:100460007B0182E090E0909305028093040224C017
:10047000199B22C080910402909105020297E1F439
:10048000C0E0D0E000EA1FE082E30E94E30084E1E4
:100490000E947B01C8010197F1F7219681E0C43FDA
:1004A000D80791F786E40E94E30086E40E947B016E
:1004B00010920502109204020E94C701DF91CF91B1
:1004C0001F910F9108950F931F93CF93DF93C0E077
:1004D000D0E000EA1FE08EE10E94E30086E40E9483
:1004E0007B01C8010197F1F7219683E0C83ED80748
:1004F00091F786E40E94E30086E40E947B01DF918D
:10050000CF911F910F9108950F931F93CF93DF9376
:10051000C0E0D0E000EA1FE086E40E94E3008EE144
:100520000E947B01C8010197F1F7219683E0C83E44
:10053000D80791F786E40E94E30086E40E947B01DD
:10054000DF91CF911F910F910895359927C0809128
:1005500000029091010262E070E00E943403009773
:1005600019F0019731F403C00E94630202C00E9497
:1005700084028091060290910702892B79F481E030
:1005800090E0909307028093060280910002909180
:10059000010201969093010280930002359B04C0F2
:1005A000109207021092060208950E94AB010E9469
:1005B000B50108980A980E94D5000E946501089527
:1005C0000F931F93CF93DF930E94D502C1E0D0E039
:1005D00001E010E00A9B0FC080910202909103029B
:1005E000892B49F41093030200930202C430D10511
:1005F00099F0219604C01092030210920202C130B9
:10060000D10551F0C130D105E0F0C330D105C9F0BA
:10061000C430D105F9F61CC08091090185FF0AC0DC
:10062000319B08C0359B06C086E40E94E30086E447
:100630000E947B010E94C7010E94A502C1E0D0E098
:10064000C9CF80E00E94E30080E00E947B01C2CF1E
:10065000C0E2DEE486E40E94E30089E10E947B01BF
:10066000CE010197F1F7F6CF97FB092E07260AD0A6
:1006700077FD04D00CD006D000201AF47095619557
:100680007F4F0895F6F7909581959F4F0895AA1B87
:10069000BB1B51E107C0AA1FBB1FA617B70710F06D
:1006A000A61BB70B881F991F5A95A9F7809590959F
:0A06B000BC01CD010895F894FFCFBE
:0206BA0002003C
:00000001FF
