:100000000C9472000C9493000C9493000C94930045
:100010000C9493000C9493000C9493000C94930014
:100020000C9493000C9493000C9493000C94930004
:100030000C9493000C943F010C9454010C940F0108
:100040000C9493000C9493000C9493000C949300E4
:100050000C9493000C94B5000C94C5000C9495007E
:100060000C9493000C9493000C9493000C949300C4
:100070000C9493000C9493000C9493000C949300B4
:100080000C9493000C9493000C9493000C949300A4
:100090000C9493000C9493000C9493000C94930094
:1000A0000C9493000C9493000C9493000C94930084
:1000B0000C9493000C9493000C9493000C94930074
:1000C0000C9493000C9493000C9493000C94930064
:1000D0000C9493000C9493000C9493000C94930054
:1000E0000C94930011241FBECFEFD1E2DEBFCDBF31
:1000F00000E00CBF12E0A0E0B2E0E2EDF6E000E0CC
:100100000BBF02C007900D92A230B107D9F712E0E1
:10011000A2E0B2E001C01D92AA30B107E1F70E944F
:10012000E4020C9467030C9400001F920F920FB628
:100130000F9211248F9387B5882331F488B58823D3
:1001400019F4A5982F980BC087B5882319F02F981C
:10015000A59A05C088B5882311F0A5982F9A8F918C
:100160000F900FBE0F901F9018951F920F920FB611
:100170000F9211248F9387B58F3F09F0A5988F9127
:100180000F900FBE0F901F9018951F920F920FB6F1
:100190000F9211248F9388B58F3F09F02F988F917C
:1001A0000F900FBE0F901F9018959D9A279AA598B3
:1001B0002F9814BC83E085BD17BC18BC87E08093E2
:1001C0006E0078940895982F8C59893C38F5292F22
:1001D000332727FD309597FD11C018BC8FEF90E0B5
:1001E000AC01249FC001259F900D349F900D1124D8
:1001F00064E670E00E94400367BD089517BC8FEF6E
:1002000090E0AC01249FC001259F900D349F900D7C
:1002100011246CE97FEF0E94400368BD08951F928E
:100220000F920FB60F9211248F938091B300882301
:1002300059F48091B400882339F4809102018F7BB6
:10024000809302012C9815C08091B300882339F067
:100250002C98809102018064809302010AC08091F1
:10026000B400882331F0809102018F7B80930201DA
:100270002C9A8F910F900FBE0F901F9018951F9280
:100280000F920FB60F9211248F938091B3008F3F7E
:1002900029F0809102018F7B809302018F910F9052
:1002A0000FBE0F901F9018951F920F920FB60F92CE
:1002B00011248F938091B4008F3F09F02C988F9177
:1002C0000F900FBE0F901F9018950E9A249AE2E09F
:1002D000F1E080818F7B80832C981092B00083E0C6
:1002E0008093B1001092B3001092B40087E0809325
:1002F000700078940895982F8C59893C58F5292FCF
:10030000332727FD309597FD13C01092B4008FEF6F
:1003100090E0AC01249FC001259F900D349F900D6B
:10032000112464E670E00E9440036093B3000895D6
:100330001092B3008FEF90E0AC01249FC001259F85
:10034000900D349F900D11246CE97FEF0E944003C3
:100350006093B40008953D9823983998EAE0F1E05D
:100360008081877F808380818F7D808308959998A5
:1003700080988298089508980A98EAE0F1E08081D0
:1003800082608083089580910B01826080930B01CD
:1003900080E090E020E23EE4F9013197F1F7019628
:1003A00084319105C9F780910B018D7F80930B01FA
:1003B00080E090E020E23EE4F9013197F1F7019608
:1003C00084319105C9F780910B01826080930B0104
:1003D00080E090E020E23EE4F9013197F1F70196E8
:1003E00084319105C9F780910B018D7F80930B01BA
:1003F000089506C080E00E94E30080E00E947B0137
:10040000919BF8CF08958091090196B185FF02C0B4
:1004100091FD24C080E00E94E30080E00E947B0107
:100420000E94C30180E090E020E23EE4F9013197B0
:10043000F1F701968A3F9105C9F782E30E94E30034
:1004400082E30E947B0180E090E020E23EE4F9013B
:100450003197F1F7019684369105C9F708951B99F4
:1004600017C080910602909107028C5594448CF538
:1004700083E20E94E30082E30E947B0180910602F6
:10048000909107020196909307028093060227C07D
:100490008091090183FD17C08091040290910502AB
:1004A0008C559444B4F482E30E94E30083E20E94FA
:1004B0007B018091040290910502019690930502C0
:1004C000809304020CC08091090183FF08C01B9B2C
:1004D00006C082E30E94E30082E30E947B018091D8
:1004E000090183FF04C010920502109204021B9BB5
:1004F00004C010920702109206020E94030208959F
:100500000F931F93CF93DF93C0E0D0E000EA1FE08A
:1005100084E10E94E30082E30E947B01C80101970D
:10052000F1F721968BE0C435D80791F782E30E945A
:10053000E30082E30E947B01DF91CF911F910F9135
:1005400008950F931F93CF93DF93C0E0D0E000EAAC
:100550001FE082E30E94E30084E10E947B01C80166
:100560000197F1F721968BE0C435D80791F782E324
:100570000E94E30082E30E947B01DF91CF911F91F3
:100580000F91089535990EC00E9480028091080253
:1005900090910902892B31F481E090E09093090257
:1005A00080930802359B04C0109209021092080241
:1005B00008950E94AB010E94B7010E94BB010E94F6
:1005C000D5000E94650108950F931F93CF93DF9389
:1005D0000E94D902C1E0D0E001E010E0029B11C00E
:1005E0008091020290910302892B59F41093030227
:1005F00000930202C330D105E1F1C130D10529F4E5
:1006000036C01092030210920202C130D10581F06F
:10061000C130D10520F0C330D10501F72AC080E0F8
:100620000E94E30080E00E947B010E94C301D6CFBC
:100630008091090185FF10C0319B0EC0359B0CC015
:100640001B990AC08091090183FD06C082E30E94C4
:10065000E30082E30E947B010E942F020E940302BA
:100660000E942F020E94C2020E942F02B7CFC3E055
:10067000D0E080E00E94E30080E00E947B01AECFEA
:1006800097FB092E07260AD077FD04D00CD006D0A0
:1006900000201AF4709561957F4F0895F6F79095B4
:1006A00081959F4F0895AA1BBB1B51E107C0AA1F4C
:1006B000BB1FA617B70710F0A61BB70B881F991F03
:1006C0005A95A9F780959095BC01CD010895F894AD
:0206D000FFCF5A
:0206D200010025
:00000001FF
